:040000000DEF00F010
:040008004FEFA8F01E
:06001800FF002CEFA7F031
:10FE1A0000000102030405060708500141542B544F
:10FE2A004553540D0A0053445F4341524425752CEF
:10FE3A0025752C25752C25752C25752C25752C25B5
:10FE4A00752C25752C25752C25752C25752C257555
:10FE5A002C25752C25752C25752C25752C25752C8E
:10FE6A0025752C25752C25752C25752C25752C2585
:10FE7A00752C25752C25752C25752C25752C257525
:10FE8A002C25752C25752C25752C25752C25752C5E
:10FE9A0025752C25752C25752C25752C25752C2555
:10FEAA00752C25752C25752C25752C25752C2575F5
:10FEBA002C25752C25752C25752C25752C25755307
:10FECA00445F434152440D0A0043454C4C564F4C43
:10FEDA0025752C25752C25752C25752C25752C2515
:10FEEA00752C25752C25752C25752C25752C2575B5
:10FEFA002C25752C25752C25752C25752C25752CEE
:10FF0A0025752C25752C25752C257543454C4C5685
:10FF1A004F4C0D0A00434F4E4649475225752C2532
:10FF2A00752C25752C25752C25752C25752C257574
:10FF3A002C25752C25752C25752C25752C25752CAD
:10FF4A0025752C25752C2575434F4E464947520D6C
:10FF5A000A00564F4C54534F4325752C25752C25B2
:10FF6A00752C25752C25752C2575564F4C54534FD9
:10FF7A00430D0A00544845524D495325752C2575A1
:10FF8A002C25752C25752C25752C2575544845521C
:10FF9A004D49530D0A00424D53494E464F256C7543
:10FFAA002C25752C25752C256C75424D53494E46CA
:10FFBA004F0D0A0041542B444154413D0041542BFA
:10FFCA0043414E423D0041542B424155443D00417C
:10FFDA00542B434F4E463D0041542B424F4F543D04
:10FFEA000041542B524553543D0041542B54455320
:06FFFA00543D002C000044
:020000040001F9
:10000000000E0601EB6F000EEA6F000EF16F000E9E
:10001000F06F000EEF6F000EEE6F3EEF8AF0BF80C4
:10002000C09AF40E7C6FF40E7D6F060E7E6F180E74
:100030007F6F040E806FEA0E816F080E826FDBEC1B
:10004000B0F020EC9CF0000E0601006F0A0E016F6C
:100050005C0E026FFF0E036F4BC504F64CC505F630
:1000600051C506F652C507F64FC508F650C509F644
:100070004DC50AF64EC50BF649C50CF64AC50DF638
:10008000DAC70EF6DBC70FF663ECB1F0000E06011F
:10009000006F0C0E016FD30E026FFE0E036F00C7D0
:1000A00004F601C705F602C706F603C707F604C73C
:1000B00008F605C709F606C70AF607C70BF608C70C
:1000C0000CF609C70DF60AC70EF60BC70FF60CC7DC
:1000D00010F60DC711F60EC712F60FC713F610C7AC
:1000E00014F611C715F612C716F613C717F614C77C
:1000F00018F615C719F616C71AF617C71BF618C74C
:100100001CF619C71DF61AC71EF61BC71FF61CC71B
:1001100020F61DC721F61EC722F61FC723F620C7EB
:1001200024F621C725F622C726F623C727F624C7BB
:1001300028F625C729F626C72AF627C72BF663EC2B
:10014000B1F0000E0601006F0D0E016F7E0E026F02
:10015000FF0E036FF8C604F6F9C605F6F6C606F6F6
:10016000F7C607F6F4C608F6F5C609F6F2C60AF6AB
:10017000F3C60BF6E1C50CF6E2C50DF653C50EF657
:1001800054C50FF663ECB1F0000E0501646F0A0E62
:10019000656FD7ECAFF0000E0501646F0C0E656F54
:1001A000D7ECAFF0000E0501646F0D0E656FD7EC54
:1001B000AFF06CEF8AF0BF90C08A000E0601EF6FBF
:1001C000000EEE6FD9C5F0F6DAC5F1F6EDEF80F06E
:1001D0000601EE4BEF2BF04BF12BF0C6B5F5F1C657
:1001E000B6F5000E0501B6BFFF0EB76FB86FD5515B
:1001F000B55DD651B659D751B759B851800AB96FC4
:10020000D851800AB959D8A008EF81F00AEF81F0DF
:10021000E8EF80F0090E0601EE19EF11D8A413EFF4
:1002200081F015EF81F02EEF81F037EF81F0010EB4
:100230000701FE6FDAECA8F0000E0501E86F010E71
:100240000601FE6F6CEF8AF0020E0701FE6F1AEFD7
:1002500081F0030E0701FE6F1AEF81F0C60E050153
:10026000646F080E656FD7ECAFF06CEF8AF0300E5C
:100270000501D925D96E090EDA21DA6EDF50B56F86
:10028000B66BB651000AD8B448EF81F02EEF81F07A
:10029000B551310AD8B417EF81F0030AD8B424EF6E
:1002A00081F0010AD8B429EF81F02EEF81F0BF90E0
:1002B000C08A000E0601EF6F000EEE6FD9C5F0F692
:1002C000DAC5F1F669EF81F00601EE4BEF2BF04B4A
:1002D000F12BF0C6B5F5F1C6B6F5000E0501B6BFB7
:1002E000FF0EB76FB86FD551B55DD651B659D7511E
:1002F000B759B851800AB96FD851800AB959D8A0F6
:1003000084EF81F086EF81F064EF81F0090E060141
:10031000EE19EF11D8A48FEF81F091EF81F02EEF5D
:1003200081F0E6EF81F0F40E7C6FF40E7D6F060E27
:100330007E6F180E7F6F040E806FDE0E816F080EC9
:10034000826FDBECB0F0000E0501616F000E606F94
:10035000010E626FB9ECB1F00EECB2F06CEF8AF006
:10036000F40E7C6FF40E7D6F060E7E6F180E7F6F9D
:10037000040E806FE20E816F080E826FDBECB0F02E
:10038000000E0501616F000E606F020E626FB9EC26
:10039000B1F0ACEF81F0F40E7C6FF40E7D6F060EC1
:1003A0007E6F180E7F6F040E806FE60E816F080E51
:1003B000826FDBECB0F0000E0501616F000E606F24
:1003C000030E626FB9ECB1F0ACEF81F0300E0501B5
:1003D000D925D96E090EDA21DA6EDF50B56FB66B0A
:1003E000B651000AD8B4F7EF81F02EEF81F0B55185
:1003F000310AD8B493EF81F0030AD8B4B0EF81F09A
:10040000010AD8B4CBEF81F02EEF81F0BF90C08A03
:10041000000E0601EF6F000EEE6F000EEB6F000E88
:10042000EA6FD9C5F0F6DAC5F1F61CEF82F00601E5
:10043000EE4BEF2BF04BF12BF0C6B5F5F1C6B6F550
:10044000000E0501B6BFFF0EB76FB86FD551B55D91
:10045000D651B659D751B759B851800AB96FD8514A
:10046000800AB959D8A037EF82F039EF82F017EF40
:1004700082F01B0E0601EE19EF11D8A442EF82F0B4
:1004800044EF82F0BEEF82F0300E0501D925D96E1F
:10049000090EDA21DA6E310EDE18D8A452EF82F09E
:1004A00054EF82F0BEEF82F0280E6D6F090E6E6F72
:1004B000FD0E6F6FFF0E706F40ECABF06DC5DCF69C
:1004C0006EC5DDF68FEF82F0DCC68AF5DDC68BF5F2
:1004D000D40E05018C6F060E8D6F000E8F6F0A0E05
:1004E0008E6F7AECB3F0A60E0601EA25D96E080EDF
:1004F000EB21DA6E05018AC5DFF40601EA4BEB2B2E
:10050000000E05016D6F000E6E6FFD0E6F6FFF0E1A
:10051000706F40ECABF06DC5DCF66EC5DDF6060124
:10052000DC51DD11D8A497EF82F099EF82F064EFEF
:1005300082F0530E0501F66F440EF76FA7C8F8F569
:10054000A8C8F9F5A9C8FAF5AAC8FBF5ABC8FCF527
:10055000ACC8FDF5F40E7C6FF40E7D6F060E7E6F59
:10056000180E7F6F080E806FF60E816F050E826F7A
:10057000DBECB0F0ADEC8EF06CEF8AF0090E06010A
:10058000EE19EF11D8A4C7EF82F0C9EF82F02EEF79
:1005900081F0300E0501D925D96E090EDA21DA6E07
:1005A000320EDE18D8A4D7EF82F0D9EF82F02EEF0A
:1005B00081F0530EF66F440EF76FF869F969000E7B
:1005C000FA6F000EFB6F000EFC6F000EFD6FAAEFBE
:1005D00082F0BF90C08A000EEF6F000E0601EF6F31
:1005E000000EEE6FD9C5F0F6DAC5F1F6FDEF82F038
:1005F0000601EE4BEF2BF04BF12BF0C6B5F5F1C633
:10060000B6F5000E0501B6BFFF0EB76FB86FD55136
:10061000B55DD651B659D751B759B851800AB96F9F
:10062000D851800AB959D8A018EF83F01AEF83F097
:10063000F8EF82F0090E0601EE19EF11D8A423EFAE
:1006400083F025EF83F02EEF81F039EF83F0F50E84
:100650007C6FF40E7D6F060E7E6F180E7F6F040E9A
:10066000806FF20E816F080E826FDBECB0F051EFFD
:1006700083F0300E0501D925D96E090EDA21DA6E24
:10068000DF50B56FB66BB651000AD8B44AEF83F0AD
:1006900051EF83F0B551310AD8B427EF83F051EF11
:1006A00083F06AECAFF00501EE05D8A45AEF83F0B1
:1006B0005CEF83F06FEF83F0070156055711D8A464
:1006C00064EF83F066EF83F06FEF83F0D00E0501E7
:1006D000646F080E656FD7ECAFF087EF83F0E40E20
:1006E0000501646F070E656FD7ECAFF0F60E0501DC
:1006F0007C6FF40E7D6F060E7E6F180E7F6F080EF6
:10070000806FEE0E816F070E826FDBECB0F0000E93
:100710000501EE6F000EEF6F6CEF8AF0BF90C08A9C
:10072000300ED925D96E090EDA21DA6E320EDE18B6
:10073000D8A49DEF83F09FEF83F02EEF81F0F50EAC
:100740007C6FF40E7D6F060E7E6F180E7F6F040EA9
:10075000806FEE0E816F080E826FDBECB0F0A3ECC1
:10076000B5F00501EA05D8A4B8EF83F0BAEF83F03D
:10077000D6EF83F0E40E646F070E656FD7ECAFF031
:10078000F60E05017C6FF40E7D6F060E7E6F180E5F
:100790007F6F080E806FEE0E816F070E826FDBECAD
:1007A000B0F0000E0501EA6FDFEF83F00601FF05F0
:1007B000D8A4DDEF83F0DFEF83F0B1EF83F0060123
:1007C000FF05D8A4E6EF83F0E8EF83F06FEF83F046
:1007D00089EF84F03950B66FB56B3750B51107010A
:1007E000286F38500501B6110701296F3D500501EA
:1007F000B66FB56B3B50B51107012A6F3C50050130
:10080000B61107012B6F41500501B66FB56B3F5014
:10081000B51107012C6F40500501B61107012D6F6E
:1008200043C52EF744C52FF7F60E05017C6FF40E75
:100830007D6F060E7E6F180E7F6F040E806FF60EB2
:10084000816F070E826FDBECB0F0000E0601FF6FC8
:10085000000E0501EF6FA8EF84F03950B66FB56B4D
:100860003750B5110701306F38500501B611070137
:10087000316F3D500501B66FB56B3B50B5110701A7
:10088000326F3C500501B6110701336F415005012D
:10089000B66FB56B3F50B5110701346F405005017D
:1008A000B6110701356F43C536F744C537F714EF66
:1008B00084F03950B66FB56B3750B5110701386FFA
:1008C00038500501B6110701396F3BC53AF73CC5F1
:1008D0003BF73DC53CF73EC53DF73FC53EF740C53C
:1008E0003FF741C540F742C541F743C542F744C50C
:1008F00043F714EF84F037C544F738C545F714EFD4
:1009000084F0000E0601FF6F000E0501EF6FA8EFE7
:1009100084F035C5B5F536C5B6F50501B651000A02
:10092000D8B495EF84F081EF84F0B551010AD8B4C2
:10093000EAEF83F0030AD8B42DEF84F0010AD8B4AB
:1009400059EF84F0070AD8B47BEF84F081EF84F08C
:100950006AECAFF00601FF05D8A4B1EF84F0B3EF65
:1009600084F0B5EF84F089EF84F00501EE05D8A49A
:10097000BCEF84F0BEEF84F06FEF83F0020E07014E
:1009800056195711D8A4C7EF84F0C9EF84F06FEF60
:1009900083F0960E0601006F0A0E016F1F0E026FA4
:1009A000FF0E036F28C704F629C705F62AC706F607
:1009B0002BC707F62CC708F62DC709F62EC70AF66F
:1009C0002FC70BF630C70CF631C70DF632C70EF63F
:1009D00033C70FF634C710F635C711F636C712F60F
:1009E00037C713F638C714F639C715F63AC716F6DF
:1009F0003BC717F63CC718F63DC719F63EC71AF6AF
:100A00003FC71BF640C71CF641C71DF642C71EF67E
:100A100043C71FF644C720F645C721F663ECB1F083
:100A2000960E0501646F0A0E656FD7ECAFF087EF85
:100A300083F0BF90C08A000E0601ED6F000EEC6FD0
:100A4000000EEB6F000EEA6F300E0501D925D96E4E
:100A5000090EDA21DA6E310EDE18D8A432EF85F0F5
:100A600034EF85F02EEF81F0280E6D6F090E6E6F5A
:100A7000FD0E6F6FFF0E706F40ECABF06DC5DEF6D4
:100A80006EC5DFF674EF85F0DEC68AF5DFC68BF53E
:100A9000D60E05018C6F060E8D6F000E8F6F0A0E3D
:100AA0008E6F7AECB3F0D8900601EA35D96EEB354B
:100AB000DA6E000ED926090EDA2205018AC5DEF4A7
:100AC0008BC5DDF40601EA4BEB2B000E05016D6FC3
:100AD000000E6E6FFD0E6F6FFF0E706F40ECABF08F
:100AE0006DC5DEF66EC5DFF60601DE51DF11D8A456
:100AF0007CEF85F07EEF85F044EF85F0000EF16F1E
:100B0000010EF06FF1BF90EF85F0F15107E1080E93
:100B1000F05DD8B08EEF85F090EF85F0C7EF85F0EF
:100B2000D890F035D96EF135DA6E000ED926090E5F
:100B3000DA22DEC4B5F5DDC4B6F5B6C5B5F50501F6
:100B4000B66BB5510601FB6FD890F035D96EF13513
:100B5000DA6E000ED926090EDA22DF50FA6FD8902D
:100B6000EC35D96EED35DA6E810ED926080EDA2213
:100B7000FBC6DFF4D890EC35D96EED35DA6E800E19
:100B8000D926080EDA22FAC6DFF4E6EF85F0F1BFC7
:100B9000D3EF85F0F15109E1080EF05DD8A0D3EF55
:100BA00085F0D5EF85F0E6EF85F0D890F035D96E79
:100BB000F135DA6E000ED926090EDA22870EEC2501
:100BC000E16E080EED21E26EDFC4E7F4EC4BED2B95
:100BD000F04BF12BF1BFF6EF85F0F15109E1100E6A
:100BE000F05DD8A0F6EF85F0F8EF85F082EF85F0A4
:100BF000C6ECA1F06CEF8AF0BF90C08A000EEF6FD8
:100C0000000E0601EF6F000EEE6FD9C5F0F6DAC5E3
:100C1000F1F610EF86F00601EE4BEF2BF04BF12BC7
:100C2000F0C6B5F5F1C6B6F5000E0501B6BFFF0E6C
:100C3000B76FB86FD551B55DD651B659D751B759C1
:100C4000B851800AB96FD851800AB959D8A02BEF92
:100C500086F02DEF86F00BEF86F0090E0601EE19F7
:100C6000EF11D8A436EF86F038EF86F02EEF81F042
:100C7000300E0501D925D96E090EDA21DA6E310E52
:100C8000DE18D8A446EF86F048EF86F02EEF81F00C
:100C900012EF8AF0F50E7C6FF40E7D6F060E7E6FFC
:100CA000180E7F6F040E806FF20E816F080E826F38
:100CB000DBECB0F06AECAFF00501EE05D8A463EF11
:100CC00086F065EF86F099EF86F00701560557111B
:100CD000D8A46DEF86F06FEF86F099EF86F0D00E16
:100CE0000501646F080E656FD7ECAFF033ECAFF021
:100CF000000E0601FD6FDEEC9DF0070E0601FD19EA
:100D0000D8A485EF86F087EF86F090EF86F0000E8E
:100D1000FD6F000E0501EE6F000EEF6F12EF8AF00F
:100D2000C60E0501646F080E656FD7ECAFF0B1EF2A
:100D300086F0E40E0501646F070E656FD7ECAFF027
:100D4000F60E05017C6FF40E7D6F060E7E6F180E99
:100D50007F6F080E806FEE0E816F070E826FDBECE7
:100D6000B0F0000E0501EE6F000EEF6F36EF8AF067
:100D7000F40E7C6FF40E7D6F060E7E6F180E7F6F83
:100D8000040E806FDA0E816F080E826FDBECB0F01C
:100D90006AECAFF00601FF05D8B4D1EF86F0D3EFCF
:100DA00086F0F0EF87F0E40E0501646F070E656FC3
:100DB000D7ECAFF0F60E05017C6FF40E7D6F060EDA
:100DC0007E6F180E7F6F080E806FEE0E816F070E1C
:100DD000826FDBECB0F036EF8AF03950B66FB56B4E
:100DE000100EB76F3BC5B8F53CC5B9F5BA6BB7295E
:100DF000FEEF86F0D890B837B937BA37E82EFAEF59
:100E000086F00501B851BB6FB951BC6FBA51BD6FC7
:100E1000BE6B3D50BF6F3E50C06FC16BC26BBFC554
:100E2000C2F5C16BC06BBF6BBB51BF11C36FBC516F
:100E3000C011C46FBD51C111C56FBE51C211C66F83
:100E4000B551C311C76FB651C411C86F000EC5119B
:100E5000C96F000EC611CA6F3750C7110601CA6F9D
:100E600038500501C8110601CB6F000E0501C911EC
:100E70000601CC6F000E0501CA110601CD6F3FC5FA
:100E8000DAF641C5DBF6000EFF6FF60E05017C6F4A
:100E9000F40E7D6F060E7E6F180E7F6F040E806F4E
:100EA000F60E816F070E826FDBECB0F0C8EF86F0B4
:100EB0003950B66FB56B3B50B76F3C50B86FB96BDC
:100EC000BA6BB8C5BAF5B7C5B9F5B86BB76B3D50D5
:100ED000BB6F3E50BC6FBD6BBE6BBBC5BEF5BD6B83
:100EE000BC6BBB6BB751BB11BF6FB851BC11C06FAE
:100EF000B951BD11C16FBA51BE11C26FB551BF1109
:100F0000C36FB651C011C46F000EC111C56F000E82
:100F1000C211C66F3750C3110601CE6F385005019C
:100F2000C4110601CF6F000E0501C5110601D06F77
:100F3000000E0501C6110601D16F660E006F060E88
:100F4000016FA00E026FFF0E036FCAC604F6CBC678
:100F500005F6CCC606F6CDC607F6DAC608F6096B66
:100F6000DBC60AF60B6BCEC60CF6CFC60DF6D0C6A6
:100F70000EF6D1C60FF663ECB1F0F60E05017C6FEC
:100F8000F40E7D6F060E7E6F180E7F6F040E806F5D
:100F9000F60E816F070E826FDBECB0F0660E050176
:100FA000646F060E656FD7ECAFF033ECAFF0DEEC9C
:100FB0009DF0070E0601FD19D8A4E1EF87F0E3EFDD
:100FC00087F0E7EF87F0000EFF6F12EF8AF0C60E92
:100FD0000501646F080E656FD7ECAFF036EF8AF04D
:100FE00035C5B5F536C5B6F50501B651000AD8B414
:100FF000FCEF87F0D3EF86F0B551F10AD8B4EDEFEE
:1010000086F0030AD8B458EF87F0D3EF86F0000ECD
:101010000601F16F000EF06F000EF025D96E0B0E79
:10102000F121DA6EDF6AF04BF12BF1BF21EF88F08E
:10103000F15109E1C80EF05DD8A021EF88F023EF4F
:1010400088F00CEF88F0000EED6F000EEC6F000ED4
:10105000EB6F000EEA6F000EEF6F000EEE6F280EC2
:1010600005016D6F090E6E6FFD0E6F6FFF0E706FD5
:1010700040ECABF06DC5E0F66EC5E1F66BEF88F0C5
:10108000E0C68AF5E1C68BF5D80E05018C6F060E19
:101090008D6F000E8F6F0A0E8E6F7AECB3F0000E1C
:1010A0000601EA25D96E0B0EEB21DA6E05018AC521
:1010B000DFF40601EA4BEB2B000E05016D6F000E0D
:1010C0006E6FFD0E6F6FFF0E706F40ECABF06DC575
:1010D000E0F66EC5E1F60601E051E111D8A473EF28
:1010E00088F075EF88F040EF88F0000EF16F020E87
:1010F000F06F7FEF88F0EE4BEF2BF04BF12B000EF3
:10110000F025D96E0B0EF121DA6EDF50D8A48BEFEB
:1011100088F08DEF88F07BEF88F00B01015105011D
:10112000B56FB66B0601EE510501B51909E106016F
:10113000EF510501B619D8A4A0EF88F0A2EF88F00E
:10114000E0EF89F0010E0601FC6FFCC6E2F601CB70
:10115000E3F6000EF16F020EF06F000EF025D96E6F
:101160000B0EF121DA6E020EEC250501B56F000EB3
:101170000601ED210501B66FE20EB525E16E060E02
:10118000B621E26EDFC4E7F40601EC4BED2BF04B29
:10119000F12BF1BFD5EF88F0F15109E1080EF05DB8
:1011A000D8A0D5EF88F0D7EF88F0ADEF88F0F50E36
:1011B00005017C6FF40E7D6F060E7E6F180E7F6F3B
:1011C000080E806FE20E816F060E826FDBECB0F0CE
:1011D0006AECAFF00501EE05D8A4F1EF88F0F3EF6B
:1011E00088F0FDEF88F0070156055711D8B4FBEFE2
:1011F00088F0FDEF88F017EF89F0E40E0501646FC9
:10120000070E656FD7ECAFF0F60E05017C6FF40E9C
:101210007D6F060E7E6F180E7F6F080E806FEE0ECC
:10122000816F070E826FDBECB0F06CEF8AF0000E7E
:101230000501EE6F0601FC2B000E0501826F000E0A
:10124000836F000E846F410E856F000E726F000E6B
:10125000736FC00E746FC00E756FEEC660F5EFC68B
:1012600061F5000E61BFFF0E626F636F010EF4EC5B
:10127000A4F060C56EF561C56FF562C570F563C514
:1012800071F5A0EC95F06EC57EF56FC57FF570C564
:1012900080F571C581F552EC9AF07EC597F57FC552
:1012A00098F580C599F581C59AF5E9ECA3F097C545
:1012B000ABF598C5ACF599C5ADF59AC5AEF562EC40
:1012C000A9F0ABC5D2F6ACC5D3F6000E0601EB6FA4
:1012D000000EEA6FC6EF89F0FCC6E2F6000E0601CA
:1012E000ED6F010EEC6FEDBF7FEF89F0ED5109E17D
:1012F000080EEC5DD8A07FEF89F081EF89F083EFD5
:1013000089F097EF89F0000EF025D96E0B0EF121D0
:10131000DA6EE20EEC25E16E060EED21E26EDFC420
:10132000E7F4F04BF12BEC4BED2B73EF89F0F50E5E
:1013300005017C6FF40E7D6F060E7E6F180E7F6FB9
:10134000080E806FE20E816F060E826FDBECB0F04C
:101350006AECAFF00501EE05D8A4B1EF89F0B3EF68
:1013600089F0FDEF88F0070156055711D8B4BBEF9F
:1013700089F0BDEF89F0BFEF89F0FDEF88F0000E36
:101380000501EE6F0601FC2BEA4BEB2BD251EA5D17
:10139000EB51800A0501B56F0601D351800A0501A2
:1013A000B559D8A0D6EF89F0D8EF89F06CEF89F065
:1013B000D00E646F080E656FD7ECAFF0E6EF89F0E2
:1013C000C60E646F080E656FD7ECAFF033ECAFF06C
:1013D000000E0601FD6FDEEC9DF0070E0601FD1903
:1013E000D8A4F5EF89F0F7EF89F036EF8AF012EF25
:1013F0008AF0F60E7C6FF40E7D6F060E7E6F180E6F
:101400007F6F040E806FDE0E816F090E826FDBEC42
:10141000B0F0D00E0501646F080E656FD7ECAFF029
:1014200036EF8AF0300E0501D925D96E090EDA2182
:10143000DA6EDF50B56FB66BB651000AD8B423EF41
:101440008AF0E7EF87F0B551310AD8B44AEF86F059
:10145000030AD8B4B8EF86F0010AD8B407EF88F0D1
:10146000070AD8B4F9EF89F0E7EF87F0000E06011C
:10147000FF6F000E0501EF6F6CEF8AF0FD51050163
:10148000B56FB66BB651000AD8B449EF8AF06CEF6D
:101490008AF0B551000AD8B40FEF80F0010AD8B431
:1014A000DBEF80F0030AD8B457EF81F0010AD8B41B
:1014B000E9EF82F0070AD8B48EEF83F0010AD8B4BE
:1014C00019EF85F0030AD8B406EF82F0010AD8B408
:1014D000FCEF85F06CEF8AF012000301879F17EC98
:1014E000ACF00009D8B477EF8AF079EF8AF06FEFAB
:1014F0008AF0280E216E050E226E010E36ECB1F038
:10150000E806D8A486EF8AF088EF8AF06FEF8AF0B9
:1015100028C545F529C546F52AC547F52BC548F523
:10152000010E0501EF6FF40E451809E1462807E1A9
:1015300048044710D8A49FEF8AF0A1EF8AF0FAEF91
:101540008AF02DC5D9F42EC5DAF4DF50276E275066
:101550000701B66FB76B20EE01F02D50D9262E5043
:10156000DA22DF50276E2750B86FB96B20EE02F0F9
:101570002D50D9262E50DA22DF50276E2750BA6F11
:10158000BB6B20EE03F02D50D9262E50DA22DF500F
:10159000276E2750BC6FBD6B20EE04F02D50D9266E
:1015A0002E50DA22DF50276E2750BE6FBF6B20EE21
:1015B00005F02D50D9262E50DA22DF50276E275005
:1015C000C06FC16B20EE06F02D50D9262E50DA22C6
:1015D000DF50276E2750C26FC36B20EE07F02D50EF
:1015E000D9262E50DA22DF50276E2750C46FC56BE4
:1015F000010E5B6EF40E45180AE1462808E1470427
:1016000006E14804D8A407EF8BF009EF8BF062EFF6
:101610008BF02DC5D9F42EC5DAF4DF50276E275094
:101620000701A66FA76B20EE01F02D50D9262E5092
:10163000DA22DF50276E2750A86FA96B20EE02F048
:101640002D50D9262E50DA22DF50276E2750AA6F50
:10165000AB6B20EE03F02D50D9262E50DA22DF504E
:10166000276E2750AC6FAD6B20EE04F02D50D926BD
:101670002E50DA22DF50276E2750AE6FAF6B20EE70
:1016800005F02D50D9262E50DA22DF50276E275034
:10169000B06FB16B20EE06F02D50D9262E50DA2215
:1016A000DF50276E2750B26FB36B20EE07F02D503E
:1016B000D9262E50DA22DF50276E2750B46FB56B33
:1016C000010E5A6EF40E45180BE1462809E1020E90
:1016D000471806E14804D8A470EF8BF072EF8BF046
:1016E000CBEF8BF02DC5D9F42EC5DAF4DF50276E81
:1016F00027500701966F976B20EE01F02D50D926E9
:101700002E50DA22DF50276E2750986F996B20EE0B
:1017100002F02D50D9262E50DA22DF50276E2750A6
:101720009A6F9B6B20EE03F02D50D9262E50DA22B3
:10173000DF50276E27509C6F9D6B20EE04F02D50DC
:10174000D9262E50DA22DF50276E27509E6F9F6BCE
:1017500020EE05F02D50D9262E50DA22DF50276ECC
:101760002750A06FA16B20EE06F02D50D9262E50E9
:10177000DA22DF50276E2750A26FA36B20EE07F00E
:101780002D50D9262E50DA22DF50276E2750A46F15
:10179000A56B010E596EF40E45180BE1462809E1C0
:1017A000030E471806E14804D8A4D9EF8BF0DBEF0D
:1017B0008BF034EF8CF02DC5D9F42EC5DAF4DF5060
:1017C000276E27500701866F876B20EE01F02D50A2
:1017D000D9262E50DA22DF50276E2750886F896B6A
:1017E00020EE02F02D50D9262E50DA22DF50276E3F
:1017F00027508A6F8B6B20EE03F02D50D9262E5088
:10180000DA22DF50276E27508C6F8D6B20EE04F0AC
:101810002D50D9262E50DA22DF50276E27508E6F9A
:101820008F6B20EE05F02D50D9262E50DA22DF5096
:10183000276E2750906F916B20EE06F02D50D92621
:101840002E50DA22DF50276E2750926F936B20EED6
:1018500007F02D50D9262E50DA22DF50276E275060
:10186000946F956B010E586EF40E45180BE14628E7
:1018700009E1040E471806E14804D8A442EF8CF0B1
:1018800044EF8CF09DEF8CF02DC5D9F42EC5DAF421
:10189000DF50276E27500701766F776B20EE01F03F
:1018A0002D50D9262E50DA22DF50276E2750786F20
:1018B000796B20EE02F02D50D9262E50DA22DF501F
:1018C000276E27507A6F7B6B20EE03F02D50D926C0
:1018D0002E50DA22DF50276E27507C6F7D6B20EE72
:1018E00004F02D50D9262E50DA22DF50276E2750D3
:1018F0007E6F7F6B20EE05F02D50D9262E50DA2218
:10190000DF50276E2750806F816B20EE06F02D5040
:10191000D9262E50DA22DF50276E2750826F836B34
:1019200020EE07F02D50D9262E50DA22DF50276EF8
:101930002750846F856B010E576EF40E45180BE12E
:10194000462809E1050E471806E14804D8A4ABEF84
:101950008CF0ADEF8CF006EF8DF02DC5D9F42EC5CF
:10196000DAF4DF50276E27500701666F676B20EEB1
:1019700001F02D50D9262E50DA22DF50276E275045
:10198000686F696B20EE02F02D50D9262E50DA22B6
:10199000DF50276E27506A6F6B6B20EE03F02D50DF
:1019A000D9262E50DA22DF50276E27506C6F6D6BD0
:1019B00020EE04F02D50D9262E50DA22DF50276E6B
:1019C00027506E6F6F6B20EE05F02D50D9262E50EC
:1019D000DA22DF50276E2750706F716B20EE06F011
:1019E0002D50D9262E50DA22DF50276E2750726FE5
:1019F000736B20EE07F02D50D9262E50DA22DF50DF
:101A0000276E2750746F756B010E566EF40E4518D5
:101A10000BE1462809E1110E471806E14804D8A455
:101A200014EF8DF016EF8DF06FEF8DF02DC5D9F41A
:101A30002EC5DAF4DF50276E27500801966F976B9A
:101A400020EE01F02D50D9262E50DA22DF50276EDD
:101A50002750986F996B20EE02F02D50D9262E500A
:101A6000DA22DF50276E27509A6F9B6B20EE03F02F
:101A70002D50D9262E50DA22DF50276E27509C6F2A
:101A80009D6B20EE04F02D50D9262E50DA22DF5027
:101A9000276E27509E6F9F6B20EE05F02D50D926A4
:101AA0002E50DA22DF50276E2750A06FA16B20EE58
:101AB00006F02D50D9262E50DA22DF50276E2750FF
:101AC000A26FA36B20EE07F02D50D9262E50DA22FC
:101AD000DF50276E2750A46FA56B010E556EF40ED4
:101AE00045180BE1462809E1100E471806E14804A5
:101AF000D8A47DEF8DF07FEF8DF0D9EF8DF02DC55F
:101B0000D9F42EC5DAF4DF50276E27500701566F3F
:101B1000576B20EE01F02D50D9262E50DA22DF50DF
:101B2000276E2750586F596B20EE02F02D50D926A2
:101B30002E50DA22DF50276E27505A6F5B6B20EE53
:101B400003F02D50D9262E50DA22DF50276E275071
:101B50005C6F5D6B20EE04F02D50D9262E50DA22FA
:101B6000DF50276E27505E6F5F6B20EE05F02D5023
:101B7000D9262E50DA22DF50276E2750606F616B16
:101B800020EE06F02D50D9262E50DA22DF50276E97
:101B90002750626F636B20EE07F02D50D9262E5030
:101BA000DA22DF50276E2750646F656B010E050146
:101BB000EE6FF50E45180BE1462809E1210E471896
:101BC00006E14804D8A4E7EF8DF0E9EF8DF042EF8D
:101BD0008EF02DC5D9F42EC5DAF4DF50276E2750CC
:101BE000356E366A20EE01F02D50D9262E50DA22BD
:101BF000DF50276E2750376E386A20EE02F02D50E6
:101C0000D9262E50DA22DF50276E2750396E3A6AD5
:101C100020EE03F02D50D9262E50DA22DF50276E09
:101C200027503B6E3C6A20EE04F02D50D9262E50F2
:101C3000DA22DF50276E27503D6E3E6A20EE05F017
:101C40002D50D9262E50DA22DF50276E27503F6EB6
:101C5000406A20EE06F02D50D9262E50DA22DF50B1
:101C6000276E2750416E426A20EE07F02D50D9268C
:101C70002E50DA22DF50276E2750436E446A010E41
:101C80000601FF6FF40E45180BE1462809E1210E0D
:101C9000471806E14804D8A450EF8EF052EF8EF0BA
:101CA000ACEF8EF02DC5D9F42EC5DAF4DF50276ED7
:101CB00027500701466F476B20EE01F02D50D926C3
:101CC0002E50DA22DF50276E2750486F496B20EEE6
:101CD00002F02D50D9262E50DA22DF50276E2750E1
:101CE0004A6F4B6B20EE03F02D50D9262E50DA228E
:101CF000DF50276E27504C6F4D6B20EE04F02D50B7
:101D0000D9262E50DA22DF50276E27504E6F4F6BA8
:101D100020EE05F02D50D9262E50DA22DF50276E06
:101D20002750506F516B20EE06F02D50D9262E50C3
:101D3000DA22DF50276E2750526F536B20EE07F0E8
:101D40002D50D9262E50DA22DF50276E2750546F9F
:101D5000556B010E0501ED6F12006AECAFF0050145
:101D6000ED05D8B4B6EF8EF0B8EF8EF0FCEF8FF043
:101D7000E40E646F070E656FD7ECAFF0F60E050149
:101D80007C6FF40E7D6F060E7E6F180E7F6F080E4F
:101D9000806FEE0E816F070E826FDBECB0F037EFD5
:101DA00092F0000EB26F010EB36FB305D8A4DBEF53
:101DB0008EF0DDEF8EF0E9EF8EF0B351020D460E9E
:101DC000F324D96E070EF420DA6EDF50EB6FFEEFCE
:101DD0008EF0B351020D460EF324D96E070EF42097
:101DE000DA6EB251020D000EF324E16E080EF420FB
:101DF000E26EDEC4E6F4DDC4E5F4B22BB32B070ECD
:101E0000B36505EF8FF007EF8FF0D5EF8EF0F60E8C
:101E10007C6FF40E7D6F060E7E6F180E7F6F040EC2
:101E2000806FF60E816F070E826FDBECB0F0000E54
:101E30000501ED6F000EEF6F26EF90F0060EB26F0A
:101E4000010EB36FB351020D460EF324D96E070E87
:101E5000F420DA6EB251020D000EF324E16E080E8A
:101E6000F420E26EDEC4E6F4DDC4E5F4B22BB32B5D
:101E7000070EB3653EEF8FF040EF8FF022EF8FF04B
:101E800007EF8FF00D0EB26F010EB36FB351020D5D
:101E9000460EF324D96E070EF420DA6EB251020D0D
:101EA000000EF324E16E080EF420E26EDEC4E6F4C8
:101EB000DDC4E5F4B22BB32B070EB36562EF8FF0F0
:101EC00064EF8FF046EF8FF007EF8FF0140EB26FD4
:101ED000010EB36FB351020D460EF324D96E070EF7
:101EE000F420DA6EB251020D000EF324E16E080EFA
:101EF000F420E26EDEC4E6F4DDC4E5F4B22BB32BCD
:101F0000070EB36586EF8FF088EF8FF06AEF8FF0E2
:101F100007EF8FF01B0EB26F010EB36FB351020DBE
:101F2000460EF324D96E070EF420DA6EB251020D7C
:101F3000000EF324E16E080EF420E26EDEC4E6F437
:101F4000DDC4E5F4B22BB32B070EB365AAEF8FF017
:101F5000ACEF8FF08EEF8FF007EF8FF0220EB26FA5
:101F6000010EB36FB351020D460EF324D96E070E66
:101F7000F420DA6EB251020D000EF324E16E080E69
:101F8000F420E26EDEC4E6F4DDC4E5F4B22BB32B3C
:101F9000070EB365CEEF8FF0D0EF8FF0B2EF8FF07A
:101FA00007EF8FF0290EB26F010EB36FB351020D20
:101FB000460EF324D96E070EF420DA6EB251020DEC
:101FC000000EF324E16E080EF420E26EDEC4E6F4A7
:101FD000DDC4E5F4B22BB32B070EB365F2EF8FF03F
:101FE000F4EF8FF0D6EF8FF007EF8FF0000EED6F6C
:101FF000000EEF6F26EF90F046C7B0F547C7B1F57A
:10200000B151000AD8B407EF90F0F6EF8FF0B0515D
:10201000100AD8B4D1EF8EF0300AD8B41EEF8FF08A
:10202000010AD8B442EF8FF0030AD8B466EF8FF0FC
:10203000010AD8B48AEF8FF0070AD8B4AEEF8FF058
:10204000010AD8B4D2EF8FF0F6EF8FF06AECAFF060
:102050000501ED05D8A42FEF90F031EF90F033EFAC
:1020600090F0FCEF8FF0EE05D8A439EF90F03BEF45
:1020700090F04DEF91F0070156055711D8A443EFAA
:1020800090F045EF90F04DEF91F0FA0E0601006FE1
:102090000E0E016F300E026FFE0E036FEBC504F6DD
:1020A000056B00C806F601C807F602C808F603C8A3
:1020B00009F604C80AF605C80BF606C80CF607C8E8
:1020C0000DF608C80EF609C80FF60AC810F60BC8B8
:1020D00011F60CC812F60DC813F60EC814F60FC888
:1020E00015F610C816F611C817F612C818F613C858
:1020F00019F614C81AF615C81BF616C81CF617C828
:102100001DF618C81EF619C81FF61AC820F61BC8F7
:1021100021F61CC822F61DC823F61EC824F61FC8C7
:1021200025F620C826F621C827F622C828F623C897
:1021300029F624C82AF625C82BF626C82CF627C867
:102140002DF628C82EF629C82FF62AC830F62BC837
:1021500031F62CC832F62DC833F62EC834F62FC807
:1021600035F630C836F631C837F632C838F633C8D7
:1021700039F634C83AF635C83BF636C83CF637C8A7
:102180003DF638C83EF639C83FF63AC840F63BC877
:1021900041F63CC842F63DC843F63EC844F63FC847
:1021A00045F640C846F641C847F642C848F643C817
:1021B00049F644C84AF645C84BF646C84CF647C8E7
:1021C0004DF648C84EF649C84FF64AC850F64BC8B7
:1021D00051F64CC852F64DC853F64EC854F64FC887
:1021E00055F650C856F651C857F652C858F653C857
:1021F00059F654C85AF655C85BF656C85CF657C827
:102200005DF658C85EF659C85FF65AC860F65BC8F6
:1022100061F65CC862F65DC863F65EC864F65FC8C6
:1022200065F663ECB1F0FA0E0501646F0E0E656F92
:10223000D7ECAFF0000E0501B36FB351020D000EE5
:10224000F324D96E080EF420DA6EDE6ADD6AB32B51
:102250003F0EB3652EEF91F030EF91F01DEF91F04E
:10226000F60E7C6FF40E7D6F060E7E6F180E7F6F7C
:10227000040E806FF60E816F070E826FDBECB0F0FC
:102280006AECAFF00501ED05D8A449EF91F04BEFF2
:1022900091F0B8EF8EF0FCEF8FF00501EE05D8A4B9
:1022A00054EF91F056EF91F0B8EF8EF0000E070169
:1022B000576F020E566FFA0E0601006F0E0E016F79
:1022C000300E026FFE0E036FEBC504F6056B00C8FF
:1022D00006F601C807F602C808F603C809F604C8DE
:1022E0000AF605C80BF606C80CF607C80DF608C8AE
:1022F0000EF609C80FF60AC810F60BC811F60CC87E
:1023000012F60DC813F60EC814F60FC815F610C84D
:1023100016F611C817F612C818F613C819F614C81D
:102320001AF615C81BF616C81CF617C81DF618C8ED
:102330001EF619C81FF61AC820F61BC821F61CC8BD
:1023400022F61DC823F61EC824F61FC825F620C88D
:1023500026F621C827F622C828F623C829F624C85D
:102360002AF625C82BF626C82CF627C82DF628C82D
:102370002EF629C82FF62AC830F62BC831F62CC8FD
:1023800032F62DC833F62EC834F62FC835F630C8CD
:1023900036F631C837F632C838F633C839F634C89D
:1023A0003AF635C83BF636C83CF637C83DF638C86D
:1023B0003EF639C83FF63AC840F63BC841F63CC83D
:1023C00042F63DC843F63EC844F63FC845F640C80D
:1023D00046F641C847F642C848F643C849F644C8DD
:1023E0004AF645C84BF646C84CF647C84DF648C8AD
:1023F0004EF649C84FF64AC850F64BC851F64CC87D
:1024000052F64DC853F64EC854F64FC855F650C84C
:1024100056F651C857F652C858F653C859F654C81C
:102420005AF655C85BF656C85CF657C85DF658C8EC
:102430005EF659C85FF65AC860F65BC861F65CC8BC
:1024400062F65DC863F65EC864F65FC865F663EC65
:10245000B1F0FA0E0501646F0E0E656FD7ECAFF0A8
:10246000D00E0501646F080E656FD7ECAFF0120057
:10247000000E0501E66F280E6B6F090E6C6FF40EEF
:102480006D6FFF0E6E6F5AECAAF06BC57AF56CC5D6
:102490007BF5280E05016B6F090E6C6FBE0E6D6F1C
:1024A000FF0E6E6F5AECAAF06BC57CF56CC57DF51E
:1024B000280E05016B6F090E6C6FD00E6D6FFF0E4D
:1024C0006E6F5AECAAF06BC57EF56CC57FF5280ED1
:1024D00005016B6F090E6C6FC70E6D6FFF0E6E6F8F
:1024E0005AECAAF06BC580F56CC581F5280E050184
:1024F0006B6F090E6C6FD90E6D6FFF0E6E6F5AEC1D
:10250000AAF06BC582F56CC583F5280E05016B6FCB
:10251000090E6C6F7B0E6D6FFF0E6E6F5AECAAF09A
:102520006BC588F56CC589F5280E05016B6F090E22
:102530006C6FEB0E6D6FFF0E6E6F5AECAAF06BC5F1
:1025400084F56CC585F5280E05016B6F090E6C6F5F
:10255000E20E6D6FFF0E6E6F5AECAAF06BC586F53A
:102560006CC587F505017A517B11D8B4BAEF92F0AA
:10257000BCEF92F01DEF93F088518911D8B4C3EFEE
:1025800092F0C5EF92F09FEF95F0280E885D716F85
:10259000090E8959726F71C5D5F572C5D6F5000E51
:1025A000D6BFFF0ED76FD86F280E7A5D716F090EF8
:1025B0007B59726F71C5D9F572C5DAF5000EDABFB5
:1025C000FF0EDB6FDC6FD9C5E7F5F7EF92F0280E51
:1025D000E725D96EDA6A090EDA22DC0EE625E16E0D
:1025E000E26A070EE222DFC4E7F4E62BE72B080ECF
:1025F000D925716F000EDA21726F000EDB21736F27
:10260000000EDC21746FE7C575F5766B776B786B20
:102610007151755D72517659735177597851800AAD
:10262000796F7451800A7959D8A019EF93F01BEF94
:1026300093F0E7EF92F09FEF95F07C517D11D8B4C5
:1026400024EF93F026EF93F087EF93F088518911F0
:10265000D8B42DEF93F02FEF93F09FEF95F0280E65
:10266000885D716F090E8959726F71C5D5F572C594
:10267000D6F5000ED6BFFF0ED76FD86F280E7C5D43
:10268000716F090E7D59726F71C5D9F572C5DAF592
:10269000000EDABFFF0EDB6FDC6FD9C5E7F561EF27
:1026A00093F0280EE725D96EDA6A090EDA22DC0EDD
:1026B000E625E16EE26A070EE222DFC4E7F4E62BCC
:1026C000E72B080ED925716F000EDA21726F000E0C
:1026D000DB21736F000EDC21746FE7C575F5766B37
:1026E000776B786B7151755D72517659735177596B
:1026F0007851800A796F7451800A7959D8A083EF94
:1027000093F085EF93F051EF93F09FEF95F07E51AA
:102710007F11D8B48EEF93F090EF93F0F1EF93F038
:1027200088518911D8B497EF93F099EF93F09FEF08
:1027300095F0280E885D716F090E8959726F71C509
:10274000D5F572C5D6F5000ED6BFFF0ED76FD86F80
:10275000280E7E5D716F090E7F59726F71C5D9F5B4
:1027600072C5DAF5000EDABFFF0EDB6FDC6FD9C57C
:10277000E7F5CBEF93F0280EE725D96EDA6A090E5C
:10278000DA22DC0EE625E16EE26A070EE222DFC401
:10279000E7F4E62BE72B080ED925716F000EDA213E
:1027A000726F000EDB21736F000EDC21746FE7C5C2
:1027B00075F5766B776B786B7151755D72517659E3
:1027C000735177597851800A796F7451800A795919
:1027D000D8A0EDEF93F0EFEF93F0BBEF93F09FEF06
:1027E00095F080518111D8B4F8EF93F0FAEF93F09F
:1027F0005BEF94F088518911D8B401EF94F003EFA6
:1028000094F09FEF95F0280E885D716F090E89593D
:10281000726F71C5D5F572C5D6F5000ED6BFFF0E25
:10282000D76FD86F280E805D716F090E8159726F56
:1028300071C5D9F572C5DAF5000EDABFFF0EDB6F90
:10284000DC6FD9C5E7F535EF94F0280EE725D96E92
:10285000DA6A090EDA22DC0EE625E16EE26A070E7C
:10286000E222DFC4E7F4E62BE72B080ED925716FCF
:10287000000EDA21726F000EDB21736F000EDC2177
:10288000746FE7C575F5766B776B786B7151755D15
:1028900072517659735177597851800A796F745112
:1028A000800A7959D8A057EF94F059EF94F025EFAA
:1028B00094F09FEF95F082518311D8B462EF94F0B9
:1028C00064EF94F0C5EF94F088518911D8B46BEFA0
:1028D00094F06DEF94F09FEF95F0280E885D716F86
:1028E000090E8959726F71C5D5F572C5D6F5000EFE
:1028F000D6BFFF0ED76FD86F280E825D716F090E9D
:102900008359726F71C5D9F572C5DAF5000EDABF59
:10291000FF0EDB6FDC6FD9C5E7F59FEF94F0280E53
:10292000E725D96EDA6A090EDA22DC0EE625E16EB9
:10293000E26A070EE222DFC4E7F4E62BE72B080E7B
:10294000D925716F000EDA21726F000EDB21736FD3
:10295000000EDC21746FE7C575F5766B776B786BCD
:102960007151755D72517659735177597851800A5A
:10297000796F7451800A7959D8A0C1EF94F0C3EFF0
:1029800094F08FEF94F09FEF95F084518511D8B4B7
:10299000CCEF94F0CEEF94F02FEF95F088518911A1
:1029A000D8B4D5EF94F0D7EF94F09FEF95F0280EC0
:1029B000885D716F090E8959726F71C5D5F572C541
:1029C000D6F5000ED6BFFF0ED76FD86F280E845DE8
:1029D000716F090E8559726F71C5D9F572C5DAF537
:1029E000000EDABFFF0EDB6FDC6FD9C5E7F509EF2C
:1029F00095F0280EE725D96EDA6A090EDA22DC0E88
:102A0000E625E16EE26A070EE222DFC4E7F4E62B78
:102A1000E72B080ED925716F000EDA21726F000EB8
:102A2000DB21736F000EDC21746FE7C575F5766BE3
:102A3000776B786B7151755D725176597351775917
:102A40007851800A796F7451800A7959D8A02BEF98
:102A500095F02DEF95F0F9EF94F09FEF95F08651FA
:102A60008711D8B436EF95F038EF95F099EF95F0DF
:102A700088518911D8B43FEF95F041EF95F09FEF61
:102A800095F0280E885D716F090E8959726F71C5B6
:102A9000D5F572C5D6F5000ED6BFFF0ED76FD86F2D
:102AA000280E865D716F090E8759726F71C5D9F551
:102AB00072C5DAF5000EDABFFF0EDB6FDC6FD9C529
:102AC000E7F573EF95F0280EE725D96EDA6A090E5F
:102AD000DA22DC0EE625E16EE26A070EE222DFC4AE
:102AE000E7F4E62BE72B080ED925716F000EDA21EB
:102AF000726F000EDB21736F000EDC21746FE7C56F
:102B000075F5766B776B786B7151755D725176598F
:102B1000735177597851800A796F7451800A7959C5
:102B2000D8A095EF95F097EF95F063EF95F09FEFB4
:102B300095F0C60E646F080E656FD7ECAFF012000B
:102B400005017151800B7A6F715171257C6F70AFE7
:102B5000ACEF95F0AEEF95F0AFEF95F07C817C5146
:102B6000D8B4B5EF95F0B7EF95F0CCEF95F07C29A0
:102B7000D8A4BDEF95F0BFEF95F0C7EF95F0000E2C
:102B80006E6F000E6F6F000E706F000E716F708FA2
:102B9000000E716FD4EF95F0000E6E6F000E6F6F28
:102BA000000E706F000E716F7551800B7B6F7A5144
:102BB0007B19D8B4DEEF95F0E0EF95F0E1EF95F0FA
:102BC0007A8D755175257B6F74AFE9EF95F0EBEF5A
:102BD00095F0ECEF95F07B817B51D8B4F2EF95F056
:102BE000F4EF95F009EF96F07B29D8A4FAEF95F071
:102BF000FCEF95F004EF96F0000E726F000E736F0D
:102C0000000E746F000E756F748F000E756F11EFEC
:102C100096F0000E726F000E736F000E746F000E50
:102C2000756F7C517B5DD8B018EF96F01AEF96F077
:102C300041EF96F07AAD1FEF96F021EF96F023EF7B
:102C400096F0800E7A1B7CC57DF57BC57CF57DC535
:102C50007BF56EC57DF572C56EF57DC572F56FC5E8
:102C60007DF573C56FF57DC573F570C57DF574C5CC
:102C700070F57DC574F571C57DF575C571F57DC5BA
:102C800075F5000E7D6F7C517BC576F5776B765FB1
:102C9000000E775B77BF56EF96F0775109E11A0E79
:102CA000765DD8A056EF96F058EF96F08FEF96F03D
:102CB0006E516F1170117111D8A461EF96F064EF2D
:102CC00096F0010E65EF96F0000E7D6F000E6E6FB0
:102CD000000E6F6F000E706F000E716F7BC57CF57C
:102CE00098EF96F07DA177EF96F079EF96F07FEF71
:102CF00096F0D8907D3101097D6F81EF96F0D890E4
:102D00007D336EA186EF96F088EF96F089EF96F00E
:102D10007D8F7135713370336F336E337C2B7B5104
:102D20007C5DD8A096EF96F098EF96F072EF96F053
:102D30007ABD9DEF96F09FEF96F0DFEF96F07C5115
:102D4000D8A4A5EF96F0A7EF96F0B1EF96F0000E9D
:102D50006E6F000E6F6F000E706F000E716F00EFE0
:102D600098F072516E2773516F237451702375510F
:102D7000712371A1BEEF96F0C0EF96F06CEF97F063
:102D80007DA1C5EF96F0C7EF96F0CDEF96F0D89005
:102D90007D3101097D6FCFEF96F0D8907D336EA124
:102DA000D4EF96F0D6EF96F0D7EF96F07D8F713591
:102DB000713370336F336E337C2B6CEF97F072513D
:102DC0006E5D73516F59745170597151800A766FED
:102DD0007551800A7659D8B0F0EF96F0F2EF96F080
:102DE0001DEF97F06E51725D766F6F517359776F6B
:102DF00070517459786F71517559796FFF0E76253E
:102E00006E6FFF0E77216F6FFF0E7821706FFF0ED0
:102E10007921716F800E7A1B7D6D7D51D8A413EFDF
:102E200097F015EF97F025EF97F0010E6E27000E43
:102E30006F237023712325EF97F072516E5F7351EA
:102E40006F5B7451705B7551715B6E516F117011D6
:102E50007111D8A42EEF97F030EF97F065EF97F04F
:102E60007D51D8A436EF97F038EF97F065EF97F0E3
:102E7000000E6E6F000E6F6F000E706F000E716FA0
:102E800000EF98F0D8906E376F37703771377DAF9D
:102E90004CEF97F04EEF97F04FEF97F06E817DA1DA
:102EA00054EF97F056EF97F05AEF97F0D8807D37B0
:102EB0005CEF97F0D8907D377C51D8B462EF97F0F3
:102EC00064EF97F065EF97F07C0770AF6AEF97F0CB
:102ED0006CEF97F042EF97F0000E7B6F7DAF73EFD2
:102EE00097F075EF97F08DEF97F07DC576F57F0E33
:102EF0007617D8B47EEF97F080EF97F084EF97F0D5
:102F0000010E7B6F8DEF97F06EA189EF97F08BEF3D
:102F100097F08DEF97F080EF97F07B51D8B493EF57
:102F200097F095EF97F0C0EF97F0010E6E27000E27
:102F30006F237023712371A1A0EF97F0A2EF97F098
:102F4000C0EF97F06EC576F56FC577F570C578F56B
:102F500071C579F57935793378337733763376C53A
:102F60006EF577C56FF578C570F579C571F57C2973
:102F7000D8B4BDEF97F0BFEF97F0C0EF97F07C2B80
:102F80007C29D8B4C6EF97F0C8EF97F0D0EF97F050
:102F90007C51D8A4CEEF97F0D0EF97F0E2EF97F006
:102FA000000E6E6F000E6F6F000E706F000E716F6F
:102FB0007C51D8A4DEEF97F0E0EF97F0E2EF97F0C6
:102FC000000E7A6F7CA1E7EF97F0E9EF97F0ECEF56
:102FD00097F0708FEDEF97F0709FD8907C31716F04
:102FE0007AAFF5EF97F0F7EF97F0F8EF97F0718F72
:102FF0006EC56EF56FC56FF570C570F571C571F56D
:103000001200000E05017C6F000E836F000E846FAE
:10301000000E856F000E866F6DC587F56EC588F54D
:1030200072BF1EEF98F0725107E1250E715DD8B0A6
:103030001CEF98F01EEF98F027EF98F071057211D1
:10304000D8A425EF98F027EF98F02EEF98F0000E17
:103050000701D76F160ED66F2BEF9AF087518811A4
:10306000D8B435EF98F037EF98F02BEF9AF087C58A
:10307000D9F488C5DAF4DF50D8A441EF98F043EFD3
:1030800098F045EF98F02BEF9AF087C5D9F488C5F2
:10309000DAF4DF50896F55EF98F0874B882B87C59E
:1030A000D9F488C5DAF4DF50896F200E8919D8B4B5
:1030B0005CEF98F05EEF98F04DEF98F0F70E8925F1
:1030C000746F756BFF0E7523755109E1050E745D04
:1030D000D8A06DEF98F06FEF98F04DEF98F0000EDC
:1030E000816F000E826F2D0E8919D8A47AEF98F0A7
:1030F0007CEF98F088EF98F0010E816F874B882B5A
:1031000087C5D9F488C5DAF4DF50896F93EF98F05A
:103110002B0E8919D8A48FEF98F091EF98F093EFC8
:1031200098F07EEF98F0300E8919D8A49AEF98F0B5
:103130009CEF98F022EF99F0874B882B87C5D9F444
:1031400088C5DAF4DF50896F71517211D8B4ABEFD2
:1031500098F0ADEF98F0B7EF98F0100E711972116A
:10316000D8A4B5EF98F0B7EF98F013EF99F0780E78
:103170008919D8B4BEEF98F0C0EF98F0C9EF98F075
:10318000580E8919D8A4C7EF98F0C9EF98F013EF3B
:1031900099F0000E726F100E716F874B882B87C5E8
:1031A000D9F488C5DAF4DF50896F8951746F756B73
:1031B000200E7413000E75139F0E7425766FFF0E8C
:1031C0007521776F775107E11A0E765DD8B0EBEF76
:1031D00098F0EDEF98F0FDEF98F089C564F5656B18
:1031E00040ECB3F0C90E05016427100E6461FBEFDB
:1031F00098F0FDEF98F00CEF99F089C566F5676BD4
:10320000AAECB0F0050166516711D8A40AEF99F055
:103210000CEF99F022EF99F0010E7C6F8707D8A090
:1032200088072BEF9AF0010E7C6F71517211D8A4B0
:103230001CEF99F01EEF99F022EF99F0000E726FDB
:10324000080E716F71517211D8A429EF99F02BEF0C
:1032500099F02FEF99F0000E726F0A0E716F735193
:10326000D8B435EF99F037EF99F053EF99F08151D9
:10327000D8A43DEF99F03FEF99F049EF99F0FF0E98
:103280007D6FFF0E7E6FFF0E7F6F7F0E806F57EF9B
:1032900099F0000E7D6F000E7E6F000E7F6F800E26
:1032A000806F57EF99F07D697E697F69806983C57A
:1032B00078F584C579F585C57AF586C57BF589519C
:1032C000746F756B200E7413000E75139F0E7425AA
:1032D000766FFF0E7521776F775107E11A0E765DD5
:1032E000D8B075EF99F077EF99F082EF99F089C532
:1032F00064F5656B40ECB3F005016451C90F896F4B
:1033000095EF99F0D00E8925746F756BFF0E7523BC
:10331000755107E10A0E745DD8B091EF99F093EF03
:1033200099F013EF9AF0300E895F8951746F756BC5
:103330007151745D7551800A766F7251800A7659A9
:10334000D8A0A5EF99F0A7EF99F0A9EF99F013EFA6
:103350009AF08251D8A4AFEF99F0B1EF99F007EF4E
:103360009AF071C560F572C561F5000E61BFFF0E80
:10337000626F636F83C564F584C565F585C566F5C1
:1033800086C567F5A1ECAFF0050189516025836F13
:10339000000E6121846F000E6221856F000E632193
:1033A000866F7851835D795184597A5185597B5163
:1033B0008659D8A0DEEF99F0E0EF99F0F7EF99F099
:1033C0007351D8B4E6EF99F0E8EF99F007EF9AF06F
:1033D00083517D5D84517E5985517F598651805935
:1033E000D8B0F5EF99F0F7EF99F007EF9AF07DC5B7
:1033F00083F57EC584F57FC585F580C586F5000E0D
:103400000701D76F220ED66F010E0501826F874B21
:10341000882B87C5D9F488C5DAF4DF50896F010E8F
:103420007C6F57EF99F08251D8A419EF9AF01BEFF7
:103430009AF02BEF9AF08151D8B421EF9AF023EF54
:103440009AF02BEF9AF0861F851F841F836D000E64
:1034500084238523862305016F517011D8B433EF7F
:103460009AF035EF9AF049EF9AF07C51D8A43BEFEF
:103470009AF03DEF9AF041EF9AF06DC587F56EC571
:1034800088F56FC5D9F470C5DAF487C5DEF488C550
:10349000DDF483C56DF584C56EF585C56FF586C50C
:1034A00070F5120005018151800B8E6F81518125CD
:1034B000956F80AF5EEF9AF060EF9AF061EF9AF04F
:1034C00095819551D8B467EF9AF069EF9AF07EEF45
:1034D0009AF09529D8A46FEF9AF071EF9AF079EFEE
:1034E0009AF0000E7E6F000E7F6F000E806F000E50
:1034F000816F808F000E816F86EF9AF0000E7E6FD5
:10350000000E7F6F000E806F000E816F8551800B63
:103510008E1B85518525966F84AF91EF9AF093EFBE
:103520009AF094EF9AF096819651D8B49AEF9AF067
:103530009CEF9AF0B1EF9AF09629D8A4A2EF9AF0F6
:10354000A4EF9AF0ACEF9AF0000E826F000E836F3A
:10355000000E846F000E856F848F000E856FB9EFAB
:103560009AF0000E826F000E836F000E846F000EC3
:10357000856F8251831184118511D8A4C2EF9AF00E
:10358000C4EF9AF0DCEF9AF0000E7E6F000E7F6FB2
:10359000000E806F000E816F800E80137F0E8113EE
:1035A0008E5181137EC57EF57FC57FF580C580F580
:1035B00081C581F51FEF9CF09551D8A4E2EF9AF0F8
:1035C000E4EF9AF0EEEF9AF0000E7E6F000E7F6F40
:1035D000000E806F000E816F1FEF9CF0965195C515
:1035E00086F5876B865F000E875B7F0E86258F6F63
:1035F000000E8721906F7EC58AF57FC58BF580C54B
:103600008CF581C58DF5000E7E6F000E7F6F000E6C
:10361000806F000E816F000E916F000E926F000E92
:10362000936F000E946F000E966F4FEF9BF09651C4
:10363000D8B41DEF9BF01FEF9BF036EF9BF0D890B6
:103640008A378B378C378D37D8907E377F378037E6
:10365000813794AF2EEF9BF030EF9BF031EF9BF072
:103660007E81D890913792379337943782518A5D13
:1036700083518B5984518C5985518D59D8A043EF72
:103680009BF045EF9BF04EEF9BF0948D82518A5F4B
:1036900083518B5B84518C5B85518D5B962B190E0E
:1036A000966555EF9BF057EF9BF017EF9BF08A5113
:1036B0008B118C118D11D8B460EF9BF062EF9BF0F1
:1036C0007AEF9BF091817AEF9BF0D8907E377F372D
:1036D0008037813794AF6FEF9BF071EF9BF072EF03
:1036E0009BF07E81D89091379237933794378F072C
:1036F000D8A0900780AF7FEF9BF081EF9BF065EF44
:103700009BF0000E966F94AF88EF9BF08AEF9BF0D2
:10371000AEEF9BF0FF0E9115866FFF0E9215876F2F
:10372000FF0E9315886F7F0E9415896F8651871150
:1037300088118911D8B49FEF9BF0A1EF9BF0A5EF02
:103740009BF0010E966FAEEF9BF07EA1AAEF9BF06F
:10375000ACEF9BF0AEEF9BF0A1EF9BF09651D8B48D
:10376000B4EF9BF0B6EF9BF0DAEF9BF0010E7E27F3
:10377000000E7F238023812381A1C1EF9BF0C3EF43
:103780009BF0DAEF9BF07EC586F57FC587F580C597
:1037900088F581C589F58935893388338733863340
:1037A00086C57EF587C57FF588C580F589C581F515
:1037B0008F4B902B90BFE5EF9BF0905108E18F2944
:1037C000D8A0E5EF9BF0E7EF9BF0F2EF9BF0000E47
:1037D000906F8F69000E7E6F000E7F6F000E806FFE
:1037E000000E816F90BFFFEF9BF0905106E18F05B7
:1037F000D8B0FDEF9BF0FFEF9BF00DEF9CF0000EBB
:10380000906F000E8F6F000E7E6F000E7F6F000EA8
:10381000806F000E816F000E8E6F8FC595F595A19C
:1038200014EF9CF016EF9CF019EF9CF0808F1AEFCC
:103830009CF0809FD8909531816FD0EF9AF0120064
:103840005B50D8B426EF9CF028EF9CF058EF9CF02A
:10385000B6C74BF5B7C74CF5B8C74DF5B9C74EF568
:103860000701BC510501616F606B0701BA51050189
:1038700060114F6E0701BB5105016111506E0701C8
:10388000C0510501616F606B0701BE5105016011F8
:10389000516E0701BF5105016111526EC2C749F552
:1038A000C3C74AF5C4C7DAF7C5C7DBF7000E5B6EBE
:1038B0005A50D8B45EEF9CF060EF9CF09FEF9CF004
:1038C0000701A8510501616F606B0701A651050151
:1038D00060110701006FA751050161110701016F18
:1038E000AC510501616F606B0701AA5105016011C0
:1038F0000701026FAB51050161110701036FB05160
:103900000501616F606B0701AE5105016011070190
:10391000046FAF51050161110701056FB451050135
:10392000616F606B0701B251050160110701066FFD
:10393000B351050161110701076F000E5A6E59500E
:10394000D8B4A5EF9CF0A7EF9CF0E6EF9CF0070140
:1039500098510501616F606B070196510501601177
:103960000701086F9751050161110701096F9C510B
:103970000501616F606B07019A5105016011070134
:103980000A6F9B510501611107010B6FA0510501E1
:10399000616F606B07019E510501601107010C6F9B
:1039A0009F510501611107010D6FA4510501616F60
:1039B000606B0701A2510501601107010E6FA35151
:1039C0000501611107010F6F000E596E5850D8B4F0
:1039D000ECEF9CF0EEEF9CF02DEF9DF0070188518D
:1039E0000501616F606B07018651050160110701D8
:1039F000106F8751050161110701116F8C5105018D
:103A0000616F606B07018A51050160110701126F38
:103A10008B51050161110701136F90510501616F11
:103A2000606B07018E51050160110701146F8F5102
:103A3000050161110701156F94510501616F606BFC
:103A400007019251050160110701166F935105019D
:103A500061110701176F000E586E5750D8B433EF3D
:103A60009DF035EF9DF074EF9DF007017851050151
:103A7000616F606B07017651050160110701186FD6
:103A80007751050161110701196F7C510501616FC3
:103A9000606B07017A510501601107011A6F7B51B4
:103AA0000501611107011B6F80510501616F606B9A
:103AB00007017E510501601107011C6F7F5105014F
:103AC000611107011D6F84510501616F606B070172
:103AD00082510501601107011E6F835105016111BB
:103AE00007011F6F000E576E5650D8B47AEF9DF045
:103AF0007CEF9DF0BBEF9DF0070168510501616F00
:103B0000606B07016651050160110701206F675165
:103B1000050161110701216F6C510501616F606B37
:103B200007016A51050160110701226F6B51050100
:103B300061110701236F70510501616F606B07010F
:103B40006E51050160110701246F6F51050161116C
:103B50000701256F74510501616F606B0701725198
:103B6000050160110701266F7351050161110701FD
:103B7000276F000E566E5550D8B4C1EF9DF0C3EFBD
:103B80009DF0DDEF9DF096C8F8F697C8F9F698C855
:103B9000F6F699C8F7F69AC8F4F69BC8F5F69CC8ED
:103BA000F2F69DC8F3F69EC8E1F59FC8E2F5A0C8FD
:103BB00053F5A1C854F5000E556E12000501F1052C
:103BC000D8A4E5EF9DF0E7EF9DF093EF9FF0000E96
:103BD000E76F950EE765EFEF9DF0F1EF9DF0F3EFE6
:103BE0009DF0FDEF9DF0000EE725D96EDA6A0E0E0E
:103BF000DA22DF6AE72BE9EF9DF0000E5C6E38EC0D
:103C000092F0DC0E0501606F070E616FF40E626FBB
:103C1000FF0E636F000E656F080E646F92ECA6F0E6
:103C2000050160516111D8A418EF9EF01AEF9EF0C3
:103C300089EF9EF0000EE46FD9C5E7F522EF9EF004
:103C4000E42BE72BE7C58AF58B6B8C6B8D6BD5511D
:103C50008A5DD6518B59D7518C598D51800A8E6F00
:103C6000D851800A8E59D8A038EF9EF03AEF9EF0D6
:103C700020EF9EF00A0EE419D8A441EF9EF043EF26
:103C80009EF089EF9EF0300ED925D96E090EDA210B
:103C9000DA6E4F0EDE18D8A450EF9EF052EF9EF071
:103CA00066EF9EF0310ED925D96E090EDA21DA6E53
:103CB0004B0EDE18D8A45FEF9EF061EF9EF066EF2A
:103CC0009EF0010EE86F020E0601FE6F300E050138
:103CD000D925D96E090EDA21DA6E430EDE18D8A482
:103CE00074EF9EF076EF9EF089EF9EF0310ED925AD
:103CF000D96E090EDA21DA6E430EDE18D8A483EFEE
:103D00009EF085EF9EF089EF9EF0000EE86F010EA9
:103D1000EC6FDC0E606F070E616FD00E626FFF0EEE
:103D2000636F000E656F080E646F92ECA6F00501DC
:103D300060516111D8A49FEF9EF0A1EF9EF0A4EF17
:103D40009EF0010E0601FD6FDC0E0501606F070E8F
:103D5000616FC70E626FFF0E636F000E656F080E16
:103D6000646F92ECA6F0050160516111D8A4BBEF1D
:103D70009EF0BDEF9EF0C0EF9EF0020E0601FD6FBB
:103D8000DC0E0501606F070E616FBE0E626FFF0EE5
:103D9000636F000E656F080E646F92ECA6F005016C
:103DA00060516111D8A4D7EF9EF0D9EF9EF0DCEFFF
:103DB0009EF0060E0601FD6FDC0E0501606F070E1A
:103DC000616FEB0E626FFF0E636F000E656F080E82
:103DD000646F92ECA6F0050160516111D8A4F3EF75
:103DE0009EF0F5EF9EF0F8EF9EF0030E0601FD6FDA
:103DF000DC0E0501606F070E616FE20E626FFF0E51
:103E0000636F000E656F080E646F92ECA6F00501FB
:103E100060516111D8A40FEF9FF011EF9FF014EFE4
:103E20009FF0070E0601FD6FDC0E0501606F070EA7
:103E3000616FD90E626FFF0E636F000E656F080E23
:103E4000646F92ECA6F0050160516111D8A42BEFCC
:103E50009FF02DEF9FF07AEF9FF0000EEF6F000EB6
:103E6000E46F000EE56FD9C5E7F539EF9FF0E42B5D
:103E7000E72BE7C58AF58B6B8C6B8D6BD5518A5D13
:103E8000D6518B59D7518C598D51800A8E6FD8518C
:103E9000800A8E59D8A04FEF9FF051EF9FF037EF77
:103EA0009FF065EF9FF0050E0601FD6F7AEF9FF022
:103EB000040E0601FD6F7AEF9FF0C60E646F080EC8
:103EC000656FD7ECAFF07AEF9FF0E4518A6F8B6BA0
:103ED0008B51000AD8B46FEF9FF05DEF9FF08A51CD
:103EE000090AD8B458EF9FF04D0AD8B453EF9FF0A9
:103EF0005DEF9FF0000E0501E76F070EE76583EFAA
:103F00009FF085EF9FF087EF9FF091EF9FF0DC0E21
:103F1000E725D96EDA6A070EDA22DF6AE72B7DEF32
:103F20009FF0000EF16F12006DC5D9F46EC5DAF482
:103F3000DEC472F5DEC473F5DEC474F5DEC475F557
:103F4000050120EE04F06D51D9266E51DA22DFA072
:103F5000ACEF9FF0AEEF9FF0E7EF9FF020EE01F0A7
:103F60006B51D9266C51DA227239E842F80BF80B02
:103F7000DF6E050E6F6FD890753374337333723301
:103F80006F2FBBEF9FF020EE02F06B51D9266C51E2
:103F9000DA2272C5DFF473C572F574C573F575C5A1
:103FA00074F5756B20EE03F06B51D9266C51DA2253
:103FB00072511F0BDF6E050E6F6FD890753374331F
:103FC000733372336F2FDDEF9FF0FEEF9FF020EE23
:103FD00003F06B51D9266C51DA22DF6A10EE02F041
:103FE0006B51E1266C51E222DFC4E7F420EE01F0D0
:103FF0006B51D9266C51DA22E7C4DFF46BC5D9F4D2
:104000006CC5DAF472C5DFF473C572F574C573F567
:1040100075C574F5756B72C56FF5070E6F1720EED9
:1040200001F06B51D9266C51DA226F51DF1220EE6C
:1040300004F06D51D9266E51DA22DF30E8320F0BD1
:10404000716F20EE04F06D51D9266E51DA22DFB087
:104050002CEFA0F030EFA0F06F6B6F2B32EFA0F0E1
:1040600005016F6B6F39F00B711320EE04F06D5189
:10407000D9266E51DA22DFB240EFA0F044EFA0F073
:10408000200E6F6F46EFA0F005016F6B6F5171133B
:1040900020EE04F06D51D9266E51DA22DFBE53EFC7
:1040A000A0F057EFA0F0400E6F6F59EFA0F00501A0
:1040B0006F6B6F51711320EE04F06D51D9266E5164
:1040C000DA22DFBC66EFA0F06AEFA0F0800E6F6F1F
:1040D0006CEFA0F005016F6B6F51711320EE04F0CF
:1040E0006B51D9266C51DA2271C5DFF420EE04F051
:1040F0006D51D9266E51DA22DFB281EFA0F083EF45
:10410000A0F0ADEFA0F0080E6B25606F000E6C21E3
:10411000616F20EE05F06D51D9266E51DA22DEC4B2
:1041200062F5DDC463F520EE04F06D51D9266E51C1
:10413000DA22DF30E8320F0B6F6F706B1B0E6F25CA
:10414000F66EFE0E7021F76EF86A000EF822080077
:10415000F550646F656B61ECB2F0120020EE04F074
:104160000C50D9260D50DA22DF50166E16C510F508
:1041700020EE04F00E50D9260F50DA2210461046D9
:10418000DF501018C30B1018DF6E16B8CAEFA0F07E
:10419000CEEFA0F0106A102ACFEFA0F0106A20EE48
:1041A00004F00E50D9260F50DA22DF501018FE0B03
:1041B0001018DF6E16BADFEFA0F0E3EFA0F0106A80
:1041C000102AE4EFA0F0106A20EE04F00E50D92679
:1041D0000F50DA221046DF501018FD0B1018DF6E5A
:1041E00016BCF5EFA0F0F9EFA0F0106A102AFAEF74
:1041F000A0F0106A20EE04F00E50D9260F50DA22FB
:1042000010321032DF5010187F0B1018DF6E16BE00
:104210000CEFA1F010EFA1F0106A102A11EFA1F03D
:10422000106A20EE04F00E50D9260F50DA22103A10
:1042300010461046DF501018BF0B1018DF6E20EE2E
:1042400001F00C50D9260D50DA22DF50106E070E07
:1042500010161050126E136A146A156A14C515F5FB
:1042600013C514F512C513F5126A0CC5D9F40DC5A2
:10427000DAF4DF50106E1050121220EE04F00E50DF
:10428000D9260F50DA22DFA048EFA1F04AEFA1F0C3
:104290008BEFA1F0050ED890123613361436153672
:1042A000E82E4BEFA1F020EE03F00C50D9260D5074
:1042B000DA22DF50106E1F0E10161050121214C5A5
:1042C00015F513C514F512C513F5126A20EE02F0A8
:1042D0000C50D9260D50DA22DF50106E10501212F9
:1042E000050ED8901236133614361536E82E71EFB7
:1042F000A1F020EE01F00C50D9260D50DA22DF504B
:10430000106ED8901032D8901032D89010321F0E04
:104310001016105012120EC5D9F40FC5DAF412C5DA
:10432000DEF413C5DEF414C5DEF415C5DEF4BE0EEE
:10433000016E080E026E080E0C24036E000E0D2096
:10434000046E20EE04F00E50D9260F50DA22DF3032
:10435000E8320F0B106E116A1B0E1024F66EFE0E63
:104360001120F76EF86A000EF8220800F550056E6D
:10437000066A8AECB2F020EE05F00E50D9260F50F6
:10438000DA22BE0EDE6E080EDD6E1200010E050191
:10439000F66F80C8F7F581C8F8F582C8F9F583C8CB
:1043A000FAF584C8FBF585C8FCF58EC8FDF5F50E59
:1043B0007C6FF40E7D6F060E7E6F180E7F6F080EF9
:1043C000806FF60E816F050E826FDBECB0F06AEC49
:1043D000AFF00501EE05D8A4F0EFA1F0F2EFA1F0E7
:1043E000FCEFA1F0070156055711D8B4FAEFA1F080
:1043F000FCEFA1F016EFA2F0E40E0501646F070ECA
:10440000656FD7ECAFF0F60E05017C6FF40E7D6F93
:10441000060E7E6F180E7F6F080E806FEE0E816F96
:10442000070E826FDBECB0F0D9EFA2F0020E0501AF
:10443000F66F86C8F7F587C8F8F588C8F9F589C812
:10444000FAF58AC8FBF58BC8FCF58FC8FDF5F50EAB
:104450007C6FF40E7D6F060E7E6F180E7F6F080E58
:10446000806FF60E816F050E826FDBECB0F0000EF0
:104470000501EE6F000EEF6F6AECAFF00501EE057F
:10448000D8A445EFA2F047EFA2F0FCEFA1F007019E
:1044900056055711D8B44FEFA2F051EFA2F053EFE9
:1044A000A2F0FCEFA1F0030E0501F66F8CC8F7F542
:1044B0008DC8F8F590C8F9F591C8FAF592C8FBF5E2
:1044C00093C8FCF594C8FDF5F50E7C6FF40E7D6F76
:1044D000060E7E6F180E7F6F080E806FF60E816FCE
:1044E000050E826FDBECB0F0000E0501EE6F000EE2
:1044F000EF6F6AECAFF00501EE05D8A482EFA2F0F1
:1045000084EFA2F0FCEFA1F0070156055711D8B4D3
:104510008CEFA2F08EEFA2F090EFA2F0FCEFA1F0F2
:10452000040E0501F66F95C8F7F5000EF86F000E42
:10453000F96F000EFA6F000EFB6F000EFC6F000E9D
:10454000FD6FF50E7C6FF40E7D6F060E7E6F180EFC
:104550007F6F080E806FF60E816F050E826FDBECA9
:10456000B0F0000E0501EE6F000EEF6F6AECAFF0D9
:104570000501EE05D8A4BFEFA2F0C1EFA2F0FCEF59
:10458000A1F0070156055711D8B4C9EFA2F0CBEF3F
:10459000A2F0CDEFA2F0FCEFA1F0D00E0501646F08
:1045A000080E656FD7ECAFF0000E0501EE6F000E40
:1045B000EF6F12008BC5D9F48CC5DAF4DEC4F6F4C3
:1045C000DDC4F7F4000EF86E0800F550250AD8A4F3
:1045D000ECEFA2F0EEEFA2F0D1EFA3F08BC5D9F48F
:1045E0008CC5DAF4DE2A000EDD22000E0701D96F39
:1045F000000ED86FD8C7E3F50501DF69E0698BC508
:10460000D9F48CC5DAF4DEC498F5DDC499F598C503
:10461000F6F499C5F7F4000EF86E0800F5C497F5A6
:104620001EEFA3F0984B992B33EFA3F0690E976F11
:1046300033EFA3F0000E976F33EFA3F097518F6F16
:10464000906B9051000AD8B428EFA3F01AEFA3F0B2
:104650008F516C0AD8B412EFA3F0190AD8B416EF30
:10466000A3F01AEFA3F098C5F6F499C5F7F4000E7D
:10467000F86E0800F550750AD8A441EFA3F043EF97
:10468000A3F0C8EFA3F07BEFA3F08DC5D9F48EC5DE
:10469000DAF4DFC48FF5020EDE26DFC490F5000EDB
:1046A000DD228FC5D9F490C5DAF4DEC491F5DDC4FE
:1046B00092F591C593F592C594F5956B966B90EF35
:1046C000A3F08DC5D9F48EC5DAF4DFC48FF5040EDE
:1046D000DE26DFC490F5000EDD228FC5D9F490C52B
:1046E000DAF4DEC493F5DEC494F5DEC495F5DEC4D9
:1046F00096F590EFA3F097518F6F906B9051000A51
:10470000D8B485EFA3F090EFA3F08F51690AD8B425
:1047100045EFA3F0050AD8B461EFA3F090EFA3F042
:10472000010E98258F6F000E9921906F8BC5D9F4DB
:104730008CC5DAF48FC5DEF490C5DDF4B0EFA3F0DC
:1047400089C57DF58AC57EF593C57FF594C580F54D
:1047500095C581F596C582F5BEECA7F0E8EFA3F00C
:1047600098C5F6F499C5F7F4000EF86E0800F550F8
:104770008F6F906B9051000AD8B4C1EFA3F0C8EFCF
:10478000A3F08F51750AD8B4A0EFA3F0C8EFA3F03F
:104790008BC5D9F48CC5DAF4DE2A000EDD22E8EFF1
:1047A000A3F08BC5D9F48CC5DAF4DEC4F6F4DDC40D
:1047B000F7F4000EF86E0800F5500501626F636BA8
:1047C00089C564F58AC565F5B1ECABF0C8EFA3F017
:1047D0001200C6C7A7F5C7C7A8F5C8C7A9F5C9C7B6
:1047E000AAF597C5A7F598C5A8F599C5A9F59AC5DD
:1047F000AAF5810E05019B6FFF0E9C6FA7C59DF565
:10480000A8C59EF5A9C59FF5AAC5A0F5180E0EEF7F
:10481000A4F0D890A0339F339E339D33E82E09EF48
:10482000A4F09D519B25A56F000E9C21A66FA6BFED
:1048300023EFA4F0A65109E1170EA55DD8A023EF40
:10484000A4F025EFA4F02FEFA4F097C597F598C535
:1048500098F599C599F59AC59AF5F3EFA4F0A6BF16
:1048600034EFA4F036EFA4F0A7EFA4F0A5C59BF5B4
:10487000FF0E9C6FFF0E9D6F7F0E9E6F000E9F6F51
:104880009B6745EFA4F04DEFA4F09F359F339E3317
:104890009D339C339B2F40EFA4F09CC5A1F59DC593
:1048A000A2F59EC5A3F59FC5A4F50501A151A715C5
:1048B0009B6FA251A8159C6FA351A9159D6FA45180
:1048C000AA159E6F9B519C119D119E11D8A46BEF50
:1048D000A4F06DEFA4F06FEFA4F025EFA4F0A7C54E
:1048E0009BF5A8C59CF5A9C59DF5AAC59EF5200E0A
:1048F0007FEFA4F0D8909E339D339C339B33E82EFA
:104900007AEFA4F09B519C119D119E11D8A48BEFBE
:10491000A4F08DEFA4F095EFA4F0A151A727A25128
:10492000A823A351A923A451AA23A11D9B6FA21DB3
:104930009C6FA31D9D6FA41D9E6F9B51A7179C513B
:10494000A8179D51A9179E51AA17EBEFA4F0A7C570
:104950009BF5A8C59CF5A9C59DF5AAC59EF5200E99
:10496000B7EFA4F0D8909E339D339C339B33E82E51
:10497000B2EFA4F09B519C119D119E11D8B4C3EFCE
:10498000A4F0C5EFA4F0CFEFA4F0000EA76F000EC7
:10499000A86F000EA96F800EAA6FEBEFA4F0D8905D
:1049A000A7359B6FA8359C6FA9359D6FAA359E6F63
:1049B0009B519C119D119E11D8B4E1EFA4F0E3EF3F
:1049C000A4F0EBEFA4F0000EA76F000EA86F800E0E
:1049D000A96F3F0EAA6FA7C597F5A8C598F5A9C5F9
:1049E00099F5AAC59AF512000501686F050168518D
:1049F000D8B4FDEFA4F0FFEFA4F021EFA5F063BF62
:104A000006EFA5F004EFA5F021EFA5F060C564F571
:104A100061C565F562C566F563C567F5641F651F09
:104A2000661F671F642B000E65236623672364C51A
:104A30006AF565C56BF566C56CF567C56DF529EF5B
:104A4000A5F060C56AF561C56BF562C56CF563C517
:104A50006DF56051611162116311D8A432EFA5F0B8
:104A600034EFA5F03EEFA5F0000E606F000E616F11
:104A7000000E626F000E636FCFEFA5F0960E696FA8
:104A800048EFA5F0692BD8906D336C336B336A33E4
:104A9000000E6A15646F000E6B15656F000E6C15C5
:104AA000666FFE0E6D15676F6451651166116711B3
:104AB000D8A45DEFA5F05FEFA5F042EFA5F06DEF94
:104AC000A5F0692B010E6A27000E6B236C236D2362
:104AD000D8906D336C336B336A33000E6A15646F94
:104AE000000E6B15656F000E6C15666FFF0E6D1571
:104AF000676F6451651166116711D8A482EFA5F044
:104B000084EFA5F061EFA5F08CEFA5F06907D890D0
:104B10006A376B376C376D376CBF91EFA5F093EF49
:104B2000A5F09BEFA5F0020E696199EFA5F09BEF50
:104B3000A5F086EFA5F069B1A0EFA5F0A2EFA5F072
:104B4000A3EFA5F06C9FD890693369C564F5656BD8
:104B5000666B676B64C567F5666B656B646B645108
:104B60006A1365516B1366516C1367516D1368516D
:104B7000D8B4BDEFA5F0BFEFA5F0C7EFA5F063BFB8
:104B8000C6EFA5F0C4EFA5F0C7EFA5F06D8F6AC51D
:104B900060F56BC561F56CC562F56DC563F5120016
:104BA000010E0701FE6FD7ECB4F0D68ED68C000E46
:104BB0000501D06F000ECF6FD890CF35D96ED035AC
:104BC000DA6E000ED926070EDA22DE6ADD6ACF4BD6
:104BD000D02BD0BFF5EFA5F0D05109E1140ECF5D79
:104BE000D8A0F5EFA5F0F7EFA5F0DCEFA5F0000EEB
:104BF0000601F96F000EF86F000EF76F000EF66FEA
:104C0000000EF56F000EF46F000EF36F000EF26FE2
:104C1000000E0501E26F000EE16F000E546E000EF3
:104C2000536E000E526E000E516E000E506E000E4E
:104C30004F6E000E4E6E000E4D6E000E4C6E000E4E
:104C40004B6E000E4A6E000E496E000E0701DB6FC0
:104C5000000EDA6F000E5B6E000E5A6E000E596E7B
:104C6000000E586E000E576E000E566E000E556EFA
:104C7000000E0501EE6F000E0601FF6F000E05012C
:104C8000ED6F000EF16F000ED26F000ED16F280E87
:104C9000D125D96E090ED221DA6EDF6AD14BD22B23
:104CA000D2BF5CEFA6F0D25109E1960ED15DD8A03B
:104CB0005CEFA6F05EEFA6F047EFA6F0000ED46F13
:104CC000000ED36FDC0ED325D96E070ED421DA6E19
:104CD000DF6AD34BD42BD4BF77EFA6F0D45109E1D0
:104CE000080ED35DD8A077EFA6F079EFA6F062EFBB
:104CF000A6F0400E0501CE6F6A0ECD6F970EE82E1E
:104D0000FED7CD2FFCD7CE2FFAD700D0000E05014D
:104D1000EC6F010E0601FE6F38ECB2F08CEFA6F0DE
:104D20000DEF00F060C567F561C568F562C569F50E
:104D300063C56AF505016407D8A06507642906E123
:104D40006529D8A4A6EFA6F0A8EFA6F0B6EFA6F0C6
:104D5000000E616F000E606F2BEFA7F00501674B2F
:104D6000682B694B6A2B6407D8A0650767C5F6F402
:104D700068C5F7F4000EF86E3F0EF76403D0080024
:104D8000F55005D0F6C4E9F4F7C4EAF4EF50000991
:104D9000D8B4CDEFA6F0CFEFA6F00BEFA7F069C522
:104DA000F6F46AC5F7F4000EF86E0800F550000935
:104DB000D8B4DDEFA6F0DFEFA6F00BEFA7F005010A
:104DC00064516511D8B4E7EFA6F0E9EFA6F00BEF58
:104DD000A7F069C5F6F46AC5F7F4000EF86E08008E
:104DE000F5C466F567C5F6F468C5F7F4000EF86E0D
:104DF0003F0EF76403D00800F55005D0F6C4E9F47F
:104E0000F7C4EAF4EF506619D8B409EFA7F00BEF36
:104E1000A7F0AEEFA6F067C5F6F468C5F7F4000E8C
:104E2000F86E3F0EF76403D00800F55005D0F6C4C5
:104E3000E9F4F7C4EAF4EF500501666F69C5F6F4CA
:104E40006AC5F7F4000EF86E0800F550665D606FF5
:104E5000616BD8A0610712001C0EF66E6B0EF76E28
:104E6000010EF86E02EEDEF110EE08F00900F5C456
:104E7000EEF4E550E150FAE1F60EF66E670EF76ECD
:104E8000010EF86E02EEC6F010EE30F00900F5C427
:104E9000EEF4E550E150FAE1260EF66E6A0EF76E7A
:104EA000010EF86E01EEE4F310EE1AF00900F5C4FD
:104EB000EEF4E550E150FAE1520EF66E6B0EF76E2D
:104EC000010EF86E0900F5C4FEF50900F5C4FFF502
:104ED00003EEFAF210EE2CF1EE6AE550E150FCE13F
:104EE000E250FAE103EE00F2FA0EEE6AE806FDE1A6
:104EF00003EE00F1960EEE6AE806FDE103EE00F027
:104F0000960EEE6AE806FDE102EE00F3C80EEE6AC8
:104F1000E806FDE102EE00F2E60EEE6AE806FDE1CB
:104F200002EE00F1DE0EEE6AE806FDE102EE00F0B0
:104F3000C60EEE6AE806FDE101EE00F3E40EEE6A4D
:104F4000E806FDE101EEF2F20E0EEE6AE806FDE182
:104F500001EED5F1290EEE6AE806FDE101EE35F12C
:104F60002B0EEE6AE806FDE10401080E5D6F000EEF
:104F70005E6F000E5F6F0001D0EFA5F00501E0BF8E
:104F8000C6EFA7F0C4EFA7F0CCEFA7F0000E866F36
:104F9000010E856FD0EFA7F0DFC585F5E0C586F57A
:104FA000D8C783F5D9C784F5000E886F1F0E876FA9
:104FB000000E0901DD6F1CEFA8F08707D8A0880755
:104FC000BE0E8725D96E090E8821DA6E7FC560F581
:104FD00080C561F581C562F582C563F50A0E646F0F
:104FE000000E656F000E666F000E676F6AECAEF024
:104FF00005016051300FDF6E8507D8A08607830753
:10500000D8A084077FC560F580C561F581C562F5CC
:1050100082C563F50A0E646F000E656F000E666F41
:10502000000E676F35ECADF060C57FF561C580F5AA
:1050300062C581F563C582F5050187518811D8B431
:1050400024EFA8F026EFA8F03EEFA8F07F518011E2
:1050500081118211D8A42FEFA8F031EFA8F0DDEF75
:10506000A7F086BF3EEFA8F0865106E18505D8B0CF
:105070003CEFA8F03EEFA8F0DDEFA7F07DC572F59C
:105080007EC573F5BE0E8725746F090E8821756F76
:1050900083C576F584C577F5F4ECAEF01200FAC45A
:1050A0002FF5FBC430F5F6C431F5F7C432F5F8C47A
:1050B00033F5F5C434F5A6A260EFA8F062EFA8F0CE
:1050C00079EFA8F0B6A267EFA8F069EFA8F079EF42
:1050D000A8F002D877EFA8F00500FA6E0901E651B2
:1050E000FD6EE751FE6EE851FF6EFA501200CDEFF3
:1050F000A8F0A6A07EEFA8F080EFA8F097EFA8F0A8
:10510000B6A085EFA8F087EFA8F097EFA8F002D837
:1051100095EFA8F00500FA6E0801FC51FD6EFD51F7
:10512000FE6EFE51FF6EFA501200CDEFA8F0A1AE58
:105130009CEFA8F09EEFA8F0A9EFA8F0B1AEA3EF06
:10514000A8F0A5EFA8F0A9EFA8F0C8ECB3F0CDEF58
:10515000A8F0A2A8AEEFA8F0B0EFA8F0BBEFA8F0BF
:10516000B2A8B5EFA8F0B7EFA8F0BBEFA8F058ECE5
:10517000B4F0CDEFA8F0A1A6C0EFA8F0C2EFA8F060
:10518000CDEFA8F0B1A6C7EFA8F0C9EFA8F0CDEF1A
:10519000A8F0AEECB3F0CDEFA8F034C5F5F433C50C
:1051A000F8F432C5F7F431C5F6F430C5FBF42FC579
:1051B000FAF41100A690F80E0501606F580E616FA9
:1051C000010E626F58ECB5F0A6923A0E0501606FC1
:1051D000660E616F010E626F51ECB5F0000E0201B8
:1051E000B86F000EB96F000EBA6F000EBB6F000EE5
:1051F000BC6F000EBD6FB00EBE6F800EBF6F000E95
:10520000C06F0701FE05D8A408EFA9F00AEFA9F0C6
:105210000FEFA9F0030E0201C16F010EC26F020E63
:105220000701FE19D8A417EFA9F019EFA9F01EEF96
:10523000A9F02A0E0201C16F000EC26F030E070112
:10524000FE19D8A426EFA9F028EFA9F02DEFA9F0B8
:10525000150E0201C16F000EC26F000E0201C36F76
:10526000000EC46F000EC56F000EC66F560E05010E
:10527000606F6B0E616F010E626F66ECB5F0540EDD
:105280000501606F6B0E616F010E626F5FECB5F030
:105290004C0E0501606F6B0E616F010E626F6DEC5D
:1052A000B5F0000E0501F26F000EF56F000EF46F01
:1052B000080EF36F000E5F6E000E5E6E000E5D6EE8
:1052C000A68012000501AD35AE35B46FB451D8A437
:1052D0006CEFA9F06EEFA9F078EFA9F0000EAB6FBC
:1052E000000EAC6F000EAD6F000EAE6FE5EFA9F0D3
:1052F000ABC5AFF5ACC5B0F5ADC5B1F5AEC5B2F552
:10530000200E88EFA9F0D890B233B133B033AF3369
:10531000E82E83EFA9F0AF51B36FAD8FFF0EAB173F
:10532000FF0EAC17FF0EAD17000EAE17960EB45F52
:10533000B4BF9FEFA9F09DEFA9F0B5EFA9F0B4516C
:10534000800A970FD8B0A7EFA9F0A9EFA9F0ABEFAB
:10535000A9F06EEFA9F0D890AE33AD33AC33AB33D8
:10536000B43FABEFA9F0CDEFA9F01F0EB465BBEFD2
:10537000A9F0BDEFA9F0C5EFA9F06EEFA9F0D890A4
:10538000AB37AC37AD37AE37B407B451D8A4CBEF99
:10539000A9F0CDEFA9F0BFEFA9F0B351D8B4D3EF86
:1053A000A9F0D5EFA9F0DDEFA9F0AE1FAD1FAC1F3E
:1053B000AB6D000EAC23AD23AE23ABC5ABF5ACC5D6
:1053C000ACF5ADC5ADF5AEC5AEF512000501666F25
:1053D000000E0501676F20EE04F06151D92662517D
:1053E000DA22DF50686F68AFF8EFA9F0FAEFA9F0A2
:1053F00006EFAAF089ECB5F0060AD8A402EFAAF0ED
:1054000004EFAAF006EFAAF00501678305016831F1
:10541000E8320F0B636F080E636511EFAAF013EF0C
:10542000AAF026EFAAF068AD18EFAAF01AEFAAF0DA
:1054300024EFAAF089ECB5F0060AD8A422EFAAF06E
:1054400024EFAAF026EFAAF005016781230EF66E7D
:10545000FE0EF76E000EF86E0800F5C463F5050148
:105460006831E8320F0B646F656B1B0E6425F66EB6
:10547000FE0E6521F76EF86A000EF8220800F5505E
:10548000635DD8B046EFAAF048EFAAF049EFAAF062
:1054900067816651F7ECB4F00009D8A452EFAAF086
:1054A00054EFAAF057EFAAF0030E050167130501A8
:1054B0006751120005016D516E11D8B462EFAAF068
:1054C00064EFAAF0C7EFAAF06DC560F56EC561F58F
:1054D000E4ECB1F060C56FF561C570F5A4EFAAF01A
:1054E0006BC560F56CC561F56DC562F56EC563F59C
:1054F0006FC564F570C565F592ECA6F005016051C5
:105500006111D8A486EFAAF088EFAAF08EEFAAF076
:105510006BC56BF56CC56CF5CCEFAAF0010E6B2575
:10552000606F000E6C21616F6DC5F6F46EC5F7F407
:10553000000EF86E0800F550626F636BAFECAEF0D2
:1055400060C56BF561C56CF505016B516C11D8B484
:10555000ACEFAAF0AEEFAAF0C7EFAAF06BC5F6F475
:105560006CC5F7F4000EF86E3F0EF76403D0080028
:10557000F55005D0F6C4E9F4F7C4EAF4EF50000999
:10558000D8A4C5EFAAF0C7EFAAF070EFAAF0000EFA
:1055900005016B6F000E6C6F1200206E000E1C6E0A
:1055A00017502CECB5F01F6E1FA0D9EFAAF0DBEF5F
:1055B000AAF03EEFABF017500C0D580EF324D96E45
:1055C000010EF420DA6EDEC41DF5DDC41EF51D509B
:1055D0001E10D8B4EEEFAAF0F0EFAAF03EEFABF059
:1055E0001DC50CF51EC50DF518C50EF519C50FF531
:1055F000AEECA0F017500C0D510EF324D96E010E35
:10560000F420DA6E000EDB802050020DFF0EF32432
:10561000D96E050EF420DA6EDF2A1750E8ECB4F0EC
:105620001A6E2050020DFF0EF324D96E050EF420E1
:10563000DA6E1A50DE5CD8A020EFABF022EFABF0B0
:105640002BEFABF02050020DFF0EF324D96E050EA8
:10565000F420DA6EDF6A1FA630EFABF032EFABF06A
:105660003CEFABF017500C0D540EF324D96E010E25
:10567000F420DA6EF70EDF16010E1C6E1C501200BD
:1056800005016D516E11D8A448EFABF04AEFABF0B5
:105690005DEFABF0DDC56DF5DEC56EF56D516E11DC
:1056A000D8A455EFABF057EFABF05DEFABF0000EC9
:1056B0006D6F000E6E6FB0EFABF06DC566F56EC529
:1056C00067F56FC568F570C569F50DECB0F00501BB
:1056D00066516D2767516E236DC5D9F46EC5DAF436
:1056E000DF50D8A476EFABF078EFABF082EFABF001
:1056F000000EDD6F000EDE6FDDC56DF5DEC56EF5EB
:10570000B0EFABF06DC566F56EC567F56FC568F5B2
:1057100070C569F542ECB0F0050166516D25DD6F8D
:1057200067516E21DE6FDDC5D9F4DEC5DAF4DF50D6
:10573000D8B49DEFABF09FEFABF0A8EFABF0DDC5B9
:10574000D9F4DEC5DAF4DF6ADD4BDE2BACEFABF06B
:10575000000EDD6F000EDE6F6DC56DF56EC56EF56A
:105760001200050164516511D8B4B9EFABF0BBEF7D
:10577000ABF0C4EFABF064516511D8A4C2EFABF04D
:10578000C4EFABF0C9EFABF062514AECB5F016EFE5
:10579000ACF020EE0AF06451D9266551DA22DE50D1
:1057A000DE10D8B4D6EFABF0D8EFABF0F3EFABF040
:1057B00020EE0AF06451D9266551DA2210EE03F08A
:1057C0006451E1266551E222DE50E65CE650800A33
:1057D0006A6FDE50800A6A59D8B0F1EFABF0F3EF90
:1057E000ABF016EFACF020EE03F06451D926655112
:1057F000DA22DEC466F5DDC467F564C5D9F465C593
:10580000DAF4DEC468F5DDC469F566516825D96E41
:1058100067516921DA6E62C5DFF420EE03F064514E
:10582000D9266551DA22DE2A000EDD221200000E92
:10583000036E000E0A6E0A50020DFE0EF324D96E9E
:10584000050EF420DA6EDF50066E06502CECB5F033
:10585000056E05A02EEFACF030EFACF071EFACF0C0
:105860000650E8ECB4F0076E05A639EFACF03BEF5C
:10587000ACF03FEFACF007C504F56FEFACF00650AD
:105880000C0D550EF324D96E010EF420DA6EDF50A4
:105890001F0B086E0A50020DFF0EF324D96E050E81
:1058A000F420DA6EDF50096E0950085CD8B05BEF67
:1058B000ACF05DEFACF063EFACF00950085C07248E
:1058C000046E6FEFACF00850095CD8B06AEFACF032
:1058D0006CEFACF03BEFACF00950085C046E045088
